:020000040000FA
:1000000000008A110A12722BF200030E8301F10024
:100010000A088A01F000040883160313A60083125D
:1000200003130B11D8308100831603132108013A02
:10003000031D2A288A110A122F218A110A128A11F5
:100040000A120B228A110A128A110A1241258A11F8
:100050000A1235280030831603132104031D3528A6
:100060008A110A124D248A110A12831603132608D4
:1000700083120313840070088A008301710E8300C9
:10008000F20E720E090083120313A4007F08A5006C
:10009000053083120313AA070318AB0A00302B02A2
:1000A000031D542833302A02031C2E298312031304
:1000B000AA01AB0183120313A6012408013A031914
:1000C000A60A26080319A4282508013A031DA42816
:1000D000043083120313060583120313A7000310D1
:1000E000270CA8000310A80C28082506031D8D283E
:1000F00083120313060883120313A700FB3027059E
:10010000831203138600060883120313A700F73037
:1001100027058312031386002E2983120313060872
:1001200083120313A700271104302704831203133B
:100130008600060883120313A700A71108302704BE
:100140008312031386002E29003083120313240424
:10015000031DE9282508013A031DE928043083120C
:100160000313060583120313A7000310270CA8002E
:100170000310A80C28082506031DD3288312031397
:10018000060883120313A700FB302705831203130D
:100190008600060883120313A700F7302705831291
:1001A000031386002E2983120313060883120313F8
:1001B000A7002711043027048312031386000608C2
:1001C00083120313A700F730270583120313860059
:1001D0002E29003083120313260403192E29250823
:1001E000031D2E29083083120313060583120313FF
:1001F000A5000310250CA6000310A60C0310A60CE6
:1002000026082406031D19298312031306088312E6
:100210000313A400FB302405831203138600060891
:1002200083120313A400F7302405831203138600FE
:100230002E2983120313060883120313A400FB3034
:100240002405831203138600060883120313A400F7
:10025000A41108302404831203138600080005301B
:1002600083120313A9070A302902031CD329A90109
:100270008A110A12C1248A110A1200308312031350
:10028000A2006D30A100A3012108FE002208FF009A
:1002900000308A110A12A9248A110A12003083122E
:1002A00003136E04031D6529831203136D08013ABD
:1002B000031D6529831603132008031D62290130DD
:1002C000A000652983160313A001831203136D0890
:1002D00083120313EE0001308A110A12E5228A11FB
:1002E0000A12003083120313A2006930A100A30197
:1002F0002108FE002208FF0000308A110A12CB22DA
:100300008A110A12831603132008013A031D8D294E
:100310000130FF0001304320D3290430831203133E
:100320006A02031D9529003069020318A6290230CC
:10033000831203136A02031D9F29AB306902031C59
:10034000A6290130FF0000304320D3290230831258
:1003500003136A02031DAE29AB3069020318CF29CB
:100360000130831203136A02031DB8295630690253
:10037000031CCF2983120313060883120313A10061
:10038000FB30210583120313860006088312031332
:10039000A100F7302105831203138600D329003012
:1003A000FF00013043200800831603130608831260
:1003B0000313A000FB3020058316031386000608F4
:1003C00083120313A000F730200583160313860061
:1003D0008A110A1260238A110A128A110A1234251C
:1003E0008A110A12080083120313D6007F08D50071
:1003F0007E08D400831203135808FD0083120313F0
:100400005408FE005508FF0056088A110A12D1252B
:100410008A110A120800053083120313D70705302A
:100420005702031C9C2AD70100308A110A12E522C8
:100430008A110A12003083120313D3006B30D200EA
:10044000FE005308FF0000308A110A12CB228A11E5
:100450000A120430831203136C02031D312A003088
:100460006B020318572A0230831203136C02031D18
:100470003B2AAB306B02031C572A83120313060876
:1004800083120313D200521001305204831203135B
:100490008600060883120313D200FD305205831232
:1004A00003138600023083120313D8009C2A023003
:1004B000831203136C02031D5F2AAB306B02031817
:1004C000852A0130831203136C02031D692A5630FA
:1004D0006B02031C852A831203130608831203137D
:1004E000D200FE30520583120313860006088312E1
:1004F0000313D200D2100230520483120313860079
:10050000013083120313D8009C2A831203130608B8
:1005100083120313D200FE305205831203138600A8
:10052000060883120313D200FD3052058312031311
:10053000860083120313D8010800831603130608EC
:1005400083120313D100FE30510583160313860076
:10055000060883120313D100FD30510583160313DF
:10056000860083120313060883120313D100FE30A2
:100570005105831203138600060883120313D1006A
:10058000FD3051058312031386008A110A1260237D
:100590008A110A12080083120313C7007F08C600DD
:1005A0007E08C500831203136808FD006708FC007D
:1005B000831203134508FE004608FF0047088A110E
:1005C0000A12DD258A110A12080083120313C100E2
:1005D000053083120313C80705304802031C5F2B44
:1005E000C8010430831203134105C2000310420CFA
:1005F000C3000310C30C430C0318012B8312031315
:100600009F12031C062B831203139F1602308312C2
:1006100003134105C2000310420CC300430C03182E
:10062000142B831203131F12031C192B83120313A1
:100630001F168312031341080139C200C100410C87
:100640000318252B831203139F11031C2A2B8312DB
:1006500003139F15831203131F141F158312031313
:10066000C101831203131F1D382B83120313C10A08
:10067000831203134108C200013A03192E2B83127F
:1006800003131F101E0883120313C400C100C2010C
:10069000C3010030C1004408C200831603131E08C2
:1006A00083120313C300C4014308410483120313DC
:1006B000E70083120313420883120313E8000800C3
:1006C000831203131F10831603131F1383120313C4
:1006D0009F131F17831603139F171F109F101F11BF
:1006E0009F1108002030FE000630FF0080308A1184
:1006F0000A12FF258A110A1283120313AD007F0824
:10070000AC002230AE000630AF00831203132C0879
:10071000B0002D08B100FF30AC07031CAD0330085A
:10072000310403190A2C04302E07B000B101B10DB9
:100730002F08B1073008FE003108FF0080308A1111
:100740000A12FF258A110A1283120313B3007F08CD
:10075000B2002E08FE002F08FF0080308A110A1216
:10076000FF258A110A1283120313B500B1007F0816
:10077000B400B00002302E07B000B101B10D2F0857
:10078000B1073008FE003108FF0080308A110A12DC
:10079000FF258A110A1283120313B100B7007F08E4
:1007A000B000B600831203133208B6003308B70056
:1007B000FF30B207031CB303360837040319032CB8
:1007C0003408FE003508FF0080308A110A12EC253B
:1007D0008A110A1283120313B6003008831203131E
:1007E000840083138312031331188317360883128E
:1007F0000313800083120313B40A0319B50AB00A65
:100800000319B10AD22B063083120313AE07031863
:10081000AF0A852B8A110A126A2E0800831203136D
:10082000BA0083120313070883120313BB003B10A3
:1008300001303A05BC00BD00BC00BD003B04831282
:1008400003138700070883120313BB00BB10023099
:100850003A05BC0003103C0CBD0003103D0DBC006C
:10086000BD003B04831203138700070883120313A0
:10087000BB003B110430BA0503103A0CBC00031056
:10088000BC0C03103C0DBA000310BA0D3A08BC00B2
:100890003B048312031387000800053083120313FF
:1008A000BE070A303E02031C752CBE0183120313DF
:1008B00040080E24831203133F08183A031D6F2CBF
:1008C00083120313060883120313B900DF303905BE
:1008D000831203138600013083160313A1008312D1
:1008E0000313BF0A83120313C00A080083160313FD
:1008F000070883120313B800FE303805831603136C
:100900008700070883120313B800FD3038058316EB
:1009100003138700070883120313B800FB30380560
:10092000831603138700060883120313B800DF3011
:1009300038058316031386008312031306088312F7
:100940000313B800B8122030380483120313860052
:10095000080083120313E5007F08E4007E08E3002B
:10096000831603132308FD00831203136308FE009C
:100970006408FF0065088A110A12D1258A110A123B
:100980000800053083120313E60705306602031CD6
:10099000332DE601803083120313060583120313FF
:1009A000E200620D83160313A401A40D8312031346
:1009B000E201831603132508013A031DE22C83127A
:1009C0000313E20A8312031362080319F52C83163A
:1009D00003132408013A031DF52C03308316031377
:1009E000A20083160313A3012D2D003083120313DD
:1009F00062040319072D831603132408031D072D12
:100A000083160313A20183160313A3012D2D0030B7
:100A1000831603132504031D1A2D831603132408BC
:100A2000031D1A2D013083160313A200831603132E
:100A3000A3002D2D0030831603132504031D2D2D37
:100A4000831603132408013A031D2D2D023083164B
:100A50000313A20083160313A301831603132408B0
:100A600083160313A50008008316031306088312D8
:100A70000313E100E1138030610483160313860041
:100A80000800053083120313CD0714304D02031CF8
:100A9000BF2DCD0102308A110A12E5228A110A12F5
:100AA000003083120313CB004E30CA00CC014A0839
:100AB000FE004B08FF0000308A110A12CB228A1177
:100AC0000A120430831203134F02031D692D0030F4
:100AD0004E020318822D0230831203134F02031DAE
:100AE000732D00304E02031C822D8312031306085F
:100AF00083120313CA004A1210304A0483120313EC
:100B00008600BF2D0230831203134F02031D8A2D6E
:100B100000304E020318BF2D003083120313CB00A8
:100B20005030CA00CC014A08FE004B08FF000030DC
:100B30008A110A12F3218A110A1283120313500830
:100B4000013A0319A72D5008023A031DB42D831250
:100B50000313060883120313CA004A1210304A0412
:100B6000831203138600BF2D83120313060883121A
:100B70000313CA00EF304A058312031386000800EE
:100B80008A110A1260238A110A12831603130608B7
:100B900083120313C900EF3049058316031386003F
:100BA0000800003A0319D52D08007E08840083133D
:100BB0007F1883177D0880000800003A0319E12D93
:100BC00008007E08840083137F1883177C08800048
:100BD000840A7D0880000800003A0319F32D803A4A
:100BE0000319FA2D00347E08840083137F188317BD
:100BF000000808007F088A007E0882000800003A8A
:100C00000319072E803A0319112EFF0100347E08C4
:100C1000840083137F1883170008FF00840A0008EC
:100C200008008A110A12FA25FD00FE0FFF03FF0AD1
:100C30008A110A12FA25FC007D08FF007C080800D2
:100C40000C340034A53406346734003402340034E4
:100C5000AB3406346E34003401340034AC34063422
:100C6000A034003401340034A7340634693400342D
:100C700002340034A93406346B34003402340034B6
:100C8000AD340634A134003401340034AE340634BB
:100C9000A234003401340034AF340634A3340034B9
:100CA00001340034B0340634A43400340134003448
:100CB000B1340634A5340034013400349D34063494
:100CC0005934003408340034B2340634A7340034C4
:100CD000013400348A110A1276248A110A128A1108
:100CE0000A129D228A110A128A110A12D4218A112B
:100CF0000A128A110A12C0258A110A128A110A12CE
:100D000095268A110A128A110A128A268A110A1253
:100D1000882E0800831203130B11D83081008B1624
:100D20008B17831603138112080083160313811196
:100D300001148114011581160800003400340034B8
:100D40000034003400340034003400340034003403
:100D500000340034003400340034003400340034F3
:060D6000013401340034EF
:02400E00323F3F
:00000001FF
